:020000040800F2
:1000000080FD0120C1010008812801084DE700089A
:1000100011250108192D0008B19D010800000000FC
:10002000000000000000000000000000F78401084C
:10003000F947000800000000BB210008093C010846
:10004000FB010008FB010008FB010008FB010008A0
:10005000FB010008FB010008FB010008FB01000890
:10006000FB010008FB010008FB010008FB01000880
:10007000FB010008FB010008FB010008FB01000870
:10008000FB010008FB010008FB010008FB01000860
:10009000FB010008FB010008FB010008FB01000850
:1000A000FB010008FB010008FB010008FB01000840
:1000B000FB010008FB010008FB010008FB01000830
:1000C000FB010008FB010008FB010008FB01000820
:1000D000FB010008A5990108FB010008FB010008CD
:1000E000FB010008FB010008FB010008FB01000800
:1000F000FB010008FB010008FB010008FB010008F0
:10010000FB010008156C0108FB010008FB01000859
:10011000FB010008FB010008FB010008FB010008CF
:10012000FB010008C1390008213B0008053C00081C
:10013000FB010008FB010008FB010008FB010008AF
:10014000FB010008FB010008FB010008FB0100089F
:10015000FB010008FB010008FB010008FB0100088F
:10016000FB010008FB010008FB010008FB0100087F
:10017000FB010008FB010008FB010008FB0100086F
:10018000FB010008FB01000851990108FB01000870
:10019000FB010008FB010008FB010008FB0100084F
:1001A000A90C0108FB010008FB010008DFF80CD0D6
:1001B00001F094FF00480047D5B3020880FD0120FC
:1001C000DFF83800016841F470010160BFF34F8F20
:1001D000DFF82C00016821F040410160BFF36F8F10
:1001E0000848804708480047FEE7FEE7FEE7FEE7CD
:1001F000FEE7FEE7FEE7FEE7FEE7FEE788ED00E04C
:1002000034EF00E0B18F0108AD01000872B670470D
:1002100062B67047EFF3108072B6704780F31088B3
:10022000704730BF704720BF7047B0FA80F070470A
:1002300090FAA0F0B0FA80F0704790FAA0F0704702
:100240002DE9F04F4FF0000C4FF0000301EB9C5EE6
:10025000BEF90250BEF900400EF5806EBEF9029064
:10026000BEF900800EF5806EBEF90270BEF9006026
:100270000EF5806EBEF902B0BEF900A00EF5806EDC
:10028000D044D944A8EB4A0AA9EB4B0B4FEAA4048B
:100290004FEAA50504EBA60405EBA705A4EB66064B
:1002A000A5EB670704EBA80405EBA905A4EB680818
:1002B000A5EB690906EBAB06A7EBAA07A6EB6B0B50
:1002C00007EB6A0A458020F8044B478020F8046B4E
:1002D000A0F8029020F8048BA0F802A020F804BB3C
:1002E00003F1010393FAA3FCB3F5807FAED1A0EB39
:1002F00082014FF0100312090FF2341000F10000D8
:1003000006B403EB430C6144A2F5803202EB833266
:10031000B1F90250B1F90040A1EB0301B0F902B00C
:10032000B0F900A000F10400A5EB040E0EFB0BFCDD
:100330000AEB4B0E05FB0ACB04FB0ECAB1F90250C7
:10034000B1F90040A1EB0301B0F90290B0F90080CF
:1003500000F10400A5EB040E0EFB09FC08EB490EAE
:1003600005FB08C904FB0EC8B1F90250B1F9004001
:10037000A1EB0301B0F90270B0F9006000F10400D4
:10038000A5EB040E0EFB07FC06EB470E05FB06C7AC
:1003900004FB0EC6B1F90250B1F9004001F10001B1
:1003A000D044D944A8EB4A0AA9EB4B0B4FEAA4046A
:1003B0004FEAA50504EB264405EB2745A4EBE636FA
:1003C000A5EBE73704EB284405EB2945A4EBE83817
:1003D000A5EBE93906EB2B46A7EB2A47A6EBEB3B4F
:1003E00007EBEA3A4D800C8019444F800E80194487
:1003F000A1F80290A1F800801944A1F802A021F808
:1004000004BBB2F5803283DA03EB430C6144A2F102
:1004100001025FEA024E18BFA0EB0C007FF476AF3A
:1004200006BC4FEA830392087FF46AAFBDE8F08F01
:100430000040000000400000004000005DDD213B66
:10044000A3227E180000412D7EA5412D0000412DE4
:1004500000C000405DDD82E75DDD213B7EA5412DD2
:10046000004000000040000000400000AA2A941252
:100470006B39460649327C0CA8118E2349327C0C1C
:10048000A3227E1821F77931AA2A9412A8118E236B
:100490005DDD213BA3227E180000412D95C6B13FB2
:1004A000461A2B1E58EE3735BEB4C53EA8118E2312
:1004B0005DDD213B63A97138DF089A28B7CDC53EC1
:1004C0007EA5412D0000412D00C0004063A92B1ED8
:1004D00021F77931BEB4C53EBEB47C0C58EE373539
:1004E00061AC213B95C6BAF9BAE571383BA73735FF
:1004F0005DDD82E75DDD213B7EA5412D21F766D7DD
:1005000056D53F3D3BA78E23A811C9CAB7CDC53EDE
:1005100061AC7E18AA2AC1C295C6B13FBEB47C0C9C
:100520000040000000400000004000001E3BB504F9
:10053000693E9201C83C2403EB356409C83C24039E
:100540006B3946066C30060E1E3BB504EB3564096C
:10055000AA2A94126B39460649327C0CAE2409173C
:10056000AF37D607882E8D0F7E1E5D1BEB356409D5
:10057000AA2A941224188C1F1E34F10AB32690154F
:10058000A8118E2349327C0CA3227E18140B6027FD
:100590006C30060E7E1E5D1B7104FB2A882E8D0FAB
:1005A000461A2B1EC7FD5A2E9D2C1211FE15E72050
:1005B00021F77931AA2A9412A8118E2387F0533497
:1005C000B2281314480D202602EAE536B32690150A
:1005D000DF089A289CE32B39AE2409177104FB2A03
:1005E0005DDD213BA3227E180000412D4ED7C53C86
:1005F0009320EF198FFB6C2F78D1153E7E1E5D1B6B
:1006000021F77931E2CB0F3F641CC61CB8F2683386
:1006100095C6B13F461A2B1E58EE373597C1FB3FA2
:1006200024188C1F02EAE536F0BCEC3FFE15E720EB
:10063000BAE57138A6B8853FD5133D2282E1DB3992
:10064000BEB4C53EA8118E235DDD213B40B1AF3D58
:10065000790FDA244DD9423C2EAE423C480D20267B
:1006600056D53F3D8EAB823A140B602778D1153EAC
:1006700063A97138DF089A28B7CDC53EB1A71236F5
:10068000A906CE2915CA4F3F78A668337104FB2A04
:1006900095C6B13FBCA576303902212C38C3EC3F5A
:1006A0007EA5412D0000412D00C00040BCA5CE29F3
:1006B000C7FD5A2EF0BCEC3F78A620268FFB6C2F8E
:1006C00009BAB13FB1A73D2257F976304DB74F3F38
:1006D00063A92B1E21F77931BEB4C53E8EABEF194D
:1006E000ECF474325EB2153E2EAE9015B8F268335B
:1006F0002DB03F3D40B1121187F053342EAE423C35
:10070000BEB47C0C58EE373561AC213BA6B8D60799
:100710002BEC1236C8AADB39F0BC240302EAE5361A
:1007200063A9713897C16EFEDCE7B03734A8E536AF
:1007300095C6BAF9BAE571383BA73735E2CB0FF564
:100740009CE32B3978A6683378D173F082E1DB39EA
:10075000EDA579314ED7EDEB6DDF823A99A56C2F7F
:100760005DDD82E75DDD213B7EA5412D9CE33AE323
:1007700052DBB63B99A5FB2A02EA19DF4DD9423C70
:10078000EDA59A2887F026DB4ED7C53C78A6202613
:1007900021F766D756D53F3D3BA78E23C7FDDFD354
:1007A00063D3AF3D34A8E720710494D078D1153ECF
:1007B00063A92B1E140B8CCD94CF723EC8AA5D1B6F
:1007C000A811C9CAB7CDC53E61AC7E18241850C85F
:1007D000E2CB0F3F2EAE90157E1E25C615CA4F3FA9
:1007E0002DB09412AE244AC451C8853F5EB28D0F1D
:1007F000AA2AC1C295C6B13FBEB47C0C6C308EC172
:10080000E2C4D43F4DB76409EB35B1C038C3EC3F07
:1008100009BA46061E3B2CC097C1FB3FF0BC24031F
:10082000004000000040000000400000D03E2E01CB
:100830009B3F6500363FC9009A3D5B02363FC900C9
:10084000693E92015F3C8803D03E2E019A3D5B02D7
:100850001E3BB504693E9201C83C2403D939E20528
:10086000023EF701F43BED038E380E079A3D5B0222
:100870001E3BB5043F373908313DC002463A7E057C
:10088000EB356409C83C24036B39460692348E0A62
:100890005F3C88038E380E073433B70BF43BED030F
:1008A000AF37D607D231DF0C8A3B5104CE369D08D4
:1008B0006C30060E1E3BB504EB356409022F2B0F7E
:1008C000B23A1A0505352B0A932D5010463A7E058B
:1008D0001E34F10A212C7311D939E2053433B70BD8
:1008E000AA2A94126B39460649327C0C3129B4137A
:1008F000FD38AA065B31410DB327D2148E380E079E
:100900006C30060E3226EE151F3872077B2FCA0E8A
:10091000AE240917AF37D607882E8D0F262321184E
:100920003F373908932D50109C213719CE369D083A
:100930009D2C12110E204B1A5D360109A42BD311E8
:100940007E1E5D1BEB356409AA2A9412EB1C6C1CFD
:100950007835C709AF295413561B791D05352B0A65
:10096000B2281314BE19841E92348E0AB327D214EF
:1009700024188C1F1E34F10AB32690158816912076
:10098000A933540BB1254C16EA1493213433B70B19
:10099000AE2409174A139222BF321A0CA923C41796
:1009A000A8118E2349327C0CA3227E1805108824BE
:1009B000D231DF0C9C213719610E7E255B31410D50
:1009C0009320EF19BB0C7126E430A40D891FA71AE0
:1009D000140B60276C30060E7E1E5D1B6D094C28C3
:1009E000F42F680E721D121CC40735297B2FCA0E06
:1009F000641CC61C1B061A2A022F2B0F561B791DBE
:100A00007104FB2A882E8D0F461A2B1EC702D82B85
:100A10000E2EEE0F3519DC1E1C01B22C932D50103A
:100A200024188C1F72FF882D182DB11011173A2031
:100A3000C7FD5A2E9D2C1211FE15E7201DFC282FF4
:100A4000212C7311EA14932173FAF22FA42BD311E2
:100A5000D5133D22CAF8B830282B3412BF12E72232
:100A600021F77931AA2A9412A8118E2379F536320A
:100A70002D2AF41291103524D2F3EF32AF295413FA
:100A8000790FDA242CF2A3333129B413610E7E25B9
:100A900087F05334B2281314480D2026E3EEFF34B8
:100AA000332873142E0CC12641EDA535B327D2147B
:100AB000140B6027A1EB483633273115FA09FE27BE
:100AC00002EAE536B3269015DF089A2865E87E37F6
:100AD0003226EE15C4073529CBE61238B1254C165F
:100AE000A906CE2932E5A1382F25AB168D05652A3A
:100AF0009CE32B39AE2409177104FB2A08E2B039B4
:100B00002B24661755038F2B77E0303AA923C4179F
:100B10003902212CE9DEAB3A262321181C01B22C24
:100B20005DDD213BA3227E180000412DD5DB923BE9
:100B30001F22DB18E4FECF2D4FDAFD3B9C21371935
:100B4000C7FD5A2ECDD8643C17219319ABFCE42E77
:100B50004ED7C53C9320EF198FFB6C2FD3D5213D89
:100B60000E204B1A73FAF22F5CD4783D891FA71A16
:100B700057F97630E8D2C93D041F021B3CF8F93022
:100B800078D1153E7E1E5D1B21F779310CD05C3E7D
:100B9000F81DB81B06F6F831A5CE9D3E721D121C3D
:100BA000ECF4743241CDD83EEB1C6C1CD2F3EF3226
:100BB000E2CB0F3F641CC61CB8F2683388CA403FC2
:100BC000DD1B201D9FF1DF3332C96B3F561B791DA2
:100BD00087F05334E1C7913FCE1AD31D6FEFC6346F
:100BE00095C6B13F461A2B1E58EE37354EC5CC3F41
:100BF000BE19841E41EDA5350CC4E13F3519DC1E3C
:100C00002BEC1236CFC2F13FAD18341F16EB7D36F8
:100C100097C1FB3F24188C1F02EAE53665C00040EF
:100C20009B17E31FEFE84B3738BFFF3F11173A2000
:100C3000DCE7B03711BEF83F88169120CBE61238BA
:100C4000F0BCEC3FFE15E720BAE57138D4BBDB3FC2
:100C500074153D21AAE4CF38BFBAC43FEA149321EA
:100C60009CE32B39AFB9A73F5F14E8218EE28439AA
:100C7000A6B8853FD5133D2282E1DB39A2B75D3F9F
:100C80004A13922277E0303AA5B6303FBF12E722EE
:100C90006DDF823AAFB5FD3E34123B2364DED33ABA
:100CA000BEB4C53EA8118E235DDD213BD5B3883E81
:100CB0001D11E22357DC6D3BF2B2453E9110352405
:100CC00052DBB63B15B2FC3D051088244FDAFD3BE4
:100CD00040B1AF3D790FDA244DD9423C71B05B3D54
:100CE000ED0E2C254DD8853CA9AF033D610E7E2528
:100CF0004ED7C53CE8AEA53CD40DCF2551D6033D1B
:100D00002EAE423C480D202656D53F3D7BADDA3B0A
:100D1000BB0C71265CD4783DD0AC6D3B2E0CC1264B
:100D200063D3AF3D2BACFA3AA10B11276DD2E33D53
:100D30008EAB823A140B602778D1153EF8AA063A9A
:100D4000870AAF2785D0453E6AAA8439FA09FE276B
:100D500094CF723EE3A9FD386D094C28A5CE9D3E87
:100D600063A97138DF089A28B7CDC53EEBA8E137F3
:100D70005208E728CCCCEB3E7BA84B37C40735297B
:100D8000E2CB0F3F12A8B13636078129FBCA303FAC
:100D9000B1A71236A906CE2915CA4F3F57A76E35FF
:100DA0001B061A2A32C96B3F05A7C6348D05652A72
:100DB00051C8853FBBA61934FF04B02A72C79C3FB7
:100DC00078A668337104FB2A95C6B13F3EA6B232BD
:100DD000E303452BBAC5C43F0BA6F83155038F2B4F
:100DE000E2C4D43FE0A53931C702D82B0CC4E13F9F
:100DF000BCA576303902212C38C3EC3FA1A5AF2F1A
:100E0000AA016A2C66C2F53F8DA5E42E1C01B22C06
:100E100097C1FB3F81A5152E8E00FA2CCAC0FF3F5B
:100E20007EA5412D0000412D00C0004081A56A2C07
:100E300072FF882D38BFFF3F8DA58F2BE4FECF2D8D
:100E400073BEFB3FA1A5B02A56FE152EB0BDF53FDF
:100E5000BCA5CE29C7FD5A2EF0BCEC3FE0A5E72883
:100E600039FD9F2E32BCE13F0BA6FE27ABFCE42EE2
:100E700077BBD43F3EA611271DFC282FBFBAC43F25
:100E800078A620268FFB6C2F09BAB13FBBA62C2574
:100E900001FBAF2F56B99C3F05A7352473FAF22FFB
:100EA000A6B8853F57A73B23E5F93430F8B76B3F29
:100EB000B1A73D2257F976304DB74F3F12A83D21DB
:100EC000CAF8B830A5B6303F7BA83A203CF8F930D4
:100ED00000B60F3FEBA8341FAEF739315EB5EB3EDD
:100EE00063A92B1E21F77931BEB4C53EE3A9201DAD
:100EF00093F6B93122B49D3E6AAA121C06F6F83167
:100F000088B3723EF8AA021B79F53632F2B2453E3A
:100F10008EABEF19ECF474325EB2153E2BACDB18DD
:100F20005FF4B232CDB1E33DD0ACC417D2F3EF32AF
:100F300040B1AF3D7BADAB1645F32C33B5B0783D3A
:100F40002EAE9015B8F268332DB03F3DE8AE731465
:100F50002CF2A333A9AF033DA9AF54139FF1DF33A4
:100F600028AFC53C71B0341213F11934A9AE853CD9
:100F700040B1121187F053342EAE423C15B2EE0F41
:100F8000FBEF8D34B6ADFD3BF2B2CA0E6FEFC63447
:100F900041ADB63BD5B3A40DE3EEFF34D0AC6D3B11
:100FA000BEB47C0C58EE373561AC213BAFB5540B69
:100FB000CCED6E35F6ABD33AA5B62B0A41EDA5358F
:100FC0008EAB823AA2B70109B6ECDC3529AB303AD8
:100FD000A6B8D6072BEC1236C8AADB39AFB9AA06D9
:100FE000A1EB48366AAA8439BFBA7E0516EB7D3676
:100FF0000FAA2B39D4BB51048CEAB136B7A9CF382C
:10100000F0BC240302EAE53663A9713811BEF7018A
:1010100078E9183712A9123838BFC900EFE84B3702
:10102000C5A8B03765C09BFF65E87E377BA84B3706
:1010300097C16EFEDCE7B03734A8E536CFC240FD7D
:1010400053E7E137F1A77D360CC413FCCBE6123829
:10105000B1A712364EC5E6FA42E6423874A7A53566
:1010600095C6BAF9BAE571383BA73735E1C78EF8AE
:1010700032E5A13805A7C63432C963F7AAE4CF38F0
:10108000D3A6533488CA39F623E4FD38A4A6DF3347
:10109000E2CB0FF59CE32B3978A6683341CDE6F31C
:1010A00015E3583950A6EF32A5CEBFF28EE284394F
:1010B0002CA674320CD098F108E2B0390BA6F831A6
:1010C00078D173F082E1DB39EDA57931E8D24FEFC9
:1010D000FCE0063AD3A5F9305CD42DEE77E0303A47
:1010E000BCA57630D3D50CEDF2DF593AA9A5F22F85
:1010F0004ED7EDEB6DDF823A99A56C2FCDD8CFEAB4
:10110000E9DEAB3A8DA5E42E4FDAB4E964DED33ADA
:1011100085A55A2ED5DB9AE8E1DDFA3A7FA5CF2DD9
:101120005DDD82E75DDD213B7EA5412DE9DE6DE6DB
:10113000DADC473B7FA5B22C77E059E557DC6D3B05
:1011400085A5212C08E248E4D5DB923B8DA58F2BA9
:101150009CE33AE352DBB63B99A5FB2A32E52DE24C
:10116000D1DADA3BA9A5652ACBE624E14FDAFD3BCB
:10117000BCA5CE2965E81DE0CED9203CD3A53529F4
:1011800002EA19DF4DD9423CEDA59A28A1EB18DE01
:10119000CDD8643C0BA6FE2741ED19DD4DD8853C2A
:1011A0002CA66027E3EE1EDCCDD7A53C50A6C126B9
:1011B00087F026DB4ED7C53C78A620262CF231DA04
:1011C000CFD6E43CA4A67E25D2F33FD951D6033D29
:1011D000D3A6DA2479F551D8D3D5213D05A73524F6
:1011E00021F766D756D53F3D3BA78E23CAF87FD659
:1011F000D8D45B3D74A7E72273FA9BD55CD4783DC5
:10120000B1A73D221DFCBBD4DFD3933DF1A79321B1
:10121000C7FDDFD363D3AF3D34A8E72072FF06D309
:10122000E8D2C93D7BA83A201C0131D26DD2E33D02
:10123000C5A88C1FC70261D1F2D1FC3D12A9DC1EEA
:10124000710494D078D1153E63A92B1E1B06CCCF18
:10125000FED02D3EB7A9791DC40707CF85D0453EE6
:101260000FAAC61C6D0947CE0CD05C3E6AAA121CA0
:10127000140B8CCD94CF723EC8AA5D1BBB0CD4CC92
:101280001CCF883E29ABA71A610E21CCA5CE9D3E6E
:101290008EABEF19051073CB2ECEB13EF6AB3719DE
:1012A000A811C9CAB7CDC53E61AC7E184A1324CA7D
:1012B00041CDD83ED0ACC417EA1483C9CCCCEB3EA8
:1012C00041AD09178816E8C857CCFD3EB6AD4C169F
:1012D000241850C8E2CB0F3F2EAE9015BE19BEC7E2
:1012E0006ECB203FA9AED214561B31C7FBCA303F8C
:1012F00028AF1314EB1CA8C688CA403FA9AF5413EB
:101300007E1E25C615CA4F3F2DB094120E20A7C5CC
:10131000A3C95D3FB5B0D3119C212DC532C96B3F28
:1013200040B112112623B9C4C1C8783FCDB15010C5
:10133000AE244AC451C8853F5EB28D0F3226E0C349
:10134000E1C7913FF2B2CA0EB3277BC372C79C3F7D
:1013500088B3060E31291CC303C7A73F22B4410D31
:10136000AA2AC1C295C6B13FBEB47C0C212C6DC265
:1013700027C6BB3F5EB5B70B932D1DC2BAC5C43F90
:1013800000B6F10A022FD3C14EC5CC3FA5B62B0A39
:101390006C308EC1E2C4D43F4DB76409D2314FC125
:1013A00076C4DB3FF8B79D08343315C10CC4E13F68
:1013B000A6B8D6079234E0C0A1C3E73F56B90E07DE
:1013C000EB35B1C038C3EC3F09BA46063F3788C099
:1013D000CFC2F13FBFBA7E058E3864C066C2F53F0A
:1013E00077BBB504D93945C0FEC1F83F32BCED0327
:1013F0001E3B2CC097C1FB3FF0BC24035F3C19C0CF
:1014000030C1FD3FB0BD5B029A3D0BC0CAC0FF3F7B
:1014100073BE9201D03E03C065C0004038BFC90012
:101420002DE9F00F6FF003042DED0C8B5FEAD30A6A
:10143000D0E901C7B0F8009004EB89040CEB040874
:101440009FEDFE9A18BF4FEAD90B00F0C18100BF93
:1014500091ED000AB0EE493A88ED000A91ED010ADB
:10146000F0EE430A88ED010A91ED020AB0EE431A4C
:1014700088ED020A91ED030AF0EE431A88ED030AA3
:1014800091ED040AB0EE432A88ED040A91ED050AB5
:10149000F0EE432A88ED050A91ED060AF0EE433A94
:1014A00088ED060A91ED070A203188ED070ADCED88
:1014B000007A9CED017ADCED026A9CED036ADCEDBA
:1014C000045A9CED055ADCED064AB0EE434A3D460F
:1014D0000CF11C0408F120085FEA0B0600F02681DD
:1014E000D5ED008A94ED008A26EE280A65EEA89ACA
:1014F00025EE28AA27EEA8BA64EEA8AA67EE28BAB5
:1015000026EEA8CA68EE28CAD5ED018A32EE000A96
:1015100032EEA92A73EE0A2A30EE8BBA33EEAA3ADB
:10152000D5ED020A74EE2C3A71EE8C1AD4ED017AE4
:1015300031EE2B1A27EE28DA26EEA8CA66EE28BA74
:1015400025EEA84A65EE289A24EEA8AA68EE28AAF5
:1015500067EEA8CA94ED027A7BEE0D8A31EE0C1A82
:1015600071EEAB1A30EE040A32EE292A72EE8A2AA4
:1015700033EE2A3A73EEAC3A66EEA0CA66EE20BAB3
:1015800065EEA09A25EE20AA24EEA04A68EE20AAD5
:1015900027EEA0BA27EE20CAD5ED030AD4ED036AE0
:1015A00030EE0A0A32EE042A78EEAC8A31EE2B1ABB
:1015B00071EEA91A72EEAA2A33EE0B3A73EE8C3A48
:1015C00066EE20CA65EEA0BA65EE209A24EEA04A27
:1015D00028EE20AA67EEA0AA27EE20BA26EEA0CA1F
:1015E000D5ED040A78EEAC8A31EE2B1A71EEA91A09
:1015F00030EE040A32EE0A2A72EEAA2A33EE0B3AD1
:1016000073EE8C3A65EEA0CA94ED046A65EE20BADA
:1016100024EEA0BA28EE204A67EEA09A27EE20AA70
:1016200066EEA0AA26EE20CAD5ED050AD4ED055A2D
:1016300031EE2B1A71EE8B1A78EEAC8A30EE040A7A
:1016400032EE292A72EE8A2A33EE2A3A73EE8C3A67
:1016500065EE20CA24EEA0BA68EE20BA27EEA04AB2
:1016600067EE209A26EEA0AA66EE20AA25EEA0CA72
:10167000D5ED060A30EE040A32EE292A27EE204A7A
:1016800094ED065A72EE8A2A66EEA09A78EEAC8A3B
:1016900031EE0B1A71EEAB1A33EE2A3A73EE8C3A36
:1016A00026EE20AA65EEA0AA64EEA0BA28EE20CA13
:1016B00027EEA0BA65EE20CAD5ED070A30EE040A7F
:1016C00032EE294A72EE8A9A33EE2AAAD4ED074AFC
:1016D00031EE0C1A78EEAB8A28EE20CA71EE8B1A26
:1016E00073EEACAA66EE202A67EEA0BA27EE20BA07
:1016F00026EEA02A25EEA03A65EE203A24EEA08A36
:1017000074EE222A78EE8C0A31EE2B1A71EE8B1AC7
:1017100030EE022A39EE833A7AEE233A3AEE884ADC
:1017200020342035761E7FF4DBAE00BF19F00706AB
:1017300036D000BF95ED008A94ED000A241D67EEB7
:10174000889A67EE088A26EE88AA66EE08AA25EE31
:1017500088BA65EE08BA24EE88CA20EE088AF0EE50
:10176000477AB0EE667AF0EE466AB0EE656AF0EE61
:10177000455A70EEA90A31EE281A71EE8A1A32EE35
:101780002A2A72EE8B2A33EE2B3A73EE8C3A34EE21
:10179000084AB0EE645A2D1DF0EE404A761EC9D1BB
:1017A000C2ED000A82ED011AC2ED021A82ED032A8F
:1017B000C2ED042A82ED053AC2ED063A82ED074AEF
:1017C0002032BAF1010A0CF1200C7FF441AE00BFC7
:1017D00013F0070A43D000BFB1EC010A3E1D0CF123
:1017E0000404B9F10103A8EC010ADCED000A97ED4D
:1017F000001AB0EE490A00EE810A29D0B3F1004F79
:101800007DD2002B24DD251F341F13F0010F07D0DC
:10181000D5ED010A94ED011A241D2D1D00EE810A5B
:101820005B1015D0D5ED010A94ED011A00EE810A86
:10183000D5ED020A94ED021A02E00000000000005B
:1018400000EE810A5B1E04F1080405F10805E9D1E8
:10185000A2EC010ABAF1010A0CF1040CBCD14068F7
:10186000A9F10104A3081FD0B3F1004F54D2002BFB
:101870001ADD624601461D4692ED000A81ED000A1E
:1018800092ED010A81ED010A92ED020A81ED020A50
:1018900092ED030A103281ED030A10316D1EEBD177
:1018A0000CEB031C00EB031014F0030202BFBDECB1
:1018B0000C8BBDE8F00F7047B2F1004F42D2002A06
:1018C0001ADD001FACF1040112F0010F05D091EDFB
:1018D000010A80ED010A001D091D52080CD000BF4D
:1018E00091ED010A80ED010A91ED020A083180EDC7
:1018F000020A0830521EF3D1BDEC0C8B00E002E06E
:10190000BDE8F00F7047F4EC010A5B1EB6EC011A5B
:1019100000EE810AF7D19BE79CED000A80ED000AFA
:101920009CED010A80ED010A9CED020A80ED020A9D
:101930009CED030A0CF1100C80ED030A10305B1EC5
:10194000EAD1B1E7BCEC010A521EA0EC010AF9D1C0
:10195000D2E770B504460498218008448000011F36
:101960001D461846A26000F05BF8656070BD2DE969
:10197000F05F0546002092469B4688460646814613
:1019800040241BE0284641464746224600F0BFFA65
:1019900053465A46C01A914110D311461846224662
:1019A00000F0A6FA2D1A67EB01084F4622460120E7
:1019B000002100F09DFA17EB00094E41201EA4F112
:1019C0000104DFDC484631462A464346BDE8F09F25
:1019D00010B5441A0346944209D28418114403E016
:1019E00011F8013D04F8013D521EF9D210BD40EA44
:1019F0000104A40703D009E010C9121F10C3042A70
:101A0000FAD203E011F8014B03F8014B521EF9D250
:101A100010BDD2B201E000F8012B491EFBD2704785
:101A20000022F6E710B513460A4604461946FFF7AA
:101A3000F0FF204610BD30B505462A460B4612F889
:101A4000010B13F8014B08B1A042F8D01CB10028DB
:101A500002D06D1CF1E7284630BD421C10F8011B76
:101A60000029FBD1801A7047034611F8012B00F8BA
:101A7000012B002AF9D1184670472DE9FE4F804608
:101A800081EA0300C00F0C46009021F0004123F0D2
:101A90000045B8EB0200A94105D2404621469046D8
:101AA0001C460B46024623F00040104347D0270D4A
:101AB000C7F30A00C3F30A510290401A019040286C
:101AC0006BDAC3F3130040F4801B0098924620B1F8
:101AD0000023D2EB030A63EB0B0B01985946C0F1CC
:101AE0004002504600F004FA06460D46504659465C
:101AF000019A00F01CFA10EB08006141002487EA0B
:101B0000115284EAE7731A4340D0009A62B3019AF3
:101B1000012A4FEA075215DC001B61EB02014FF06E
:101B2000004202EA0752CDE90042001C41F5801153
:101B300032462B4600F053FA03B0BDE8F08F404622
:101B40002146F9E7001B61EB0201001C41F58013FF
:101B500000185B412018A2F5001747EB030140EA8B
:101B6000D570B6196D4111E06D084FEA360645EAA9
:101B7000C0754FEA0752001B61EB0201001C41F5E2
:101B8000801149084FEA30000019514132462B4676
:101B900003B0BDE8F04F00F013BA009801224000F6
:101BA0000023D0EB020263EBE073009821464FEA7A
:101BB000E074B8EB000061EB0401E9E783F0004357
:101BC0005BE781F0004158E72DE9FE4F81EA03040D
:101BD00004F0004421F0004100944FF0000B23F08A
:101BE000004350EA01045ED052EA03045BD0C3F321
:101BF0000A54C1F30A552C44A4F2F3340194A0FB17
:101C00000254C1F3130141F48011C3F3130343F4ED
:101C1000801301FB024400FB034E840A970A44EA46
:101C2000815447EA8357A4FB076802958D0A05FB98
:101C300007854FEA932C04FB0C542705029D4FEABD
:101C4000065847EA1637B5EB08056EEB070C870E0A
:101C5000920E47EA811742EA8312A7FB0201B6EB14
:101C60000B0164EB00042B0D43EA0C335E1844EBCC
:101C70001C50DA465146E7FB0201C5F313044FEA54
:101C80000B3343EA14534FEA0432019C43EA060340
:101C9000A4F10C040294009CCDE900B400F09FF97B
:101CA00003B0BDE8F08F00200146F9E72DE9F04DC3
:101CB00081EA030404F0004B21F0004514464FF084
:101CC000000A23F0004150EA050220D054EA010244
:101CD0001DD0C5F30A570246C5F31303C1F3130021
:101CE000C1F30A5640F4801543F48013A7EB0608AD
:101CF000101BD64608F2FD3873EB050002D308F13D
:101D0000010801E092185B41B8F1000F03DA0020EE
:101D10000146BDE8F08D00204FF480110646844650
:101D20000EE0171B73EB050705D3121B63EB0503CE
:101D300006434CEA010C49084FEA300092185B4117
:101D400050EA0107EDD152EA030012D082EA040002
:101D500083EA0501084305D0101BAB4106D20122DE
:101D6000002306E000224FF0004302E06FF0010282
:101D700053101AEB06004CEB085110EB0A0041EB34
:101D80000B01BDE8F04D00F01BB90EB5C10F80EAA4
:101D9000E0700844CA07002140F233438DE80E008A
:101DA0000A460B4600F01BF903B000BD0EB540F229
:101DB000334102910021CDE900110A460B4600F0A3
:101DC0000EF903B000BD70B5C1F30A5201F0004531
:101DD0000024C1F3130140F2FF3341F480119A4211
:101DE00001DA002070BD40F233439A42A2F233423E
:101DF00003DC524200F08BF800E090402C43F1D01D
:101E0000404270BDC1F30A5210B5C1F3130140F254
:101E1000FF3341F480119A4201DA002010BD40F2F4
:101E200033439A42A2F2334203DC524200F06FF88D
:101E300010BD904010BD00F0004230F000400AD0CC
:101E4000C10D01F56071C0F3160042EA0151C208EC
:101E500040071143704700200146704730B5041E0B
:101E600071F1000404DB4FF00044404264EB0101D7
:101E7000141E73F1000405DB1C464FF00043524270
:101E800063EB04038B4208BF824230BD01F0004384
:101E900030B421F0004150EA010206D00A0DA2F54B
:101EA0006072C1F31301002A02DC30BC00207047CD
:101EB000440F44EAC104C100E01830BC00EBC2503A
:101EC00000F047B830B50B4601460020202201241F
:101ED00009E021FA02F59D4205D303FA02F5491BF8
:101EE00004FA02F52844151EA2F10102F1DC30BD0E
:101EF000202A04DB203A00FA02F1002070479140CA
:101F0000C2F1200320FA03F3194390407047202ABE
:101F100004DB203A21FA02F00021704721FA02F393
:101F2000D040C2F120029140084319467047202A50
:101F300006DBCB17203A41FA02F043EAE07306E0F1
:101F400041FA02F3D040C2F1200291400843194601
:101F500070470029A8BF7047401C490008BF20F007
:101F60000100704710B4B0FA80FC00FA0CF050EA9F
:101F7000010404BF10BC704749B1CCF1200421FA20
:101F800004F411FA0CF118BF012121430843A3EB1B
:101F90000C01CB1D4FEA00614FEA102042BF002028
:101FA00010BC704700EBC35010440029A4BF10BC04
:101FB0007047401C490008BF20F0010010BC70476A
:101FC00010B5141E73F1000408DA401C41F1000141
:101FD00092185B411A4301D120F0010010BD2DE998
:101FE000F04D92469B4611B1B1FA81F202E0B0FA8F
:101FF00080F220329046FFF77BFF04460F4640EA0E
:102000000A0041EA0B0153465A46084313D01146D1
:1020100053EA010019D0C8F140025046FFF777FF9C
:1020200005460E46504659464246FFF761FF0843B3
:1020300005D0012004E020463946BDE8F08D00209F
:10204000054346EAE0762C4337430A986305E40AE1
:10205000A0EB08000022FD0A44EA47540A3002D5EA
:1020600000200146E9E7010510196941DDE908454D
:1020700000196941BDE8F04DA2E7C1F30A52C1F36E
:10208000130140F2FF3341F480119A4202DA00203A
:102090000146704740F233439A42A2F2334202DCD7
:1020A0005242FFF734BFFFF723BF000030B5041ED4
:1020B00071F1000404DB4FF00044404264EB010185
:1020C000141E73F1000405DB1C464FF0004352421E
:1020D00063EB0403994208BF904230BD064C074DA4
:1020E00006E0E06840F0010394E8070098471034E8
:1020F000AC42F6D3FEF75EF8E01A0508001B0508AF
:1021000070B58C1810F8015B15F0070301D110F8B9
:10211000013B2A1106D110F8012B03E010F8016BE6
:1021200001F8016B5B1EF9D12B0705D40023521E69
:102130000DD401F8013BFAE710F8013BCB1A921CD1
:1021400003E013F8015B01F8015B521EF9D5A142CF
:10215000D8D3002070BD0000EFF3098141B1F1EE4A
:10216000101A40F8041D20ED200A24490A68106066
:102170007047B0EC200A02C8E1EE101A20490A6844
:10218000106070471F484FF0FF010170002080F37E
:1021900009881D48016881F308881C484FF0805168
:1021A000016062B6FEE719484FF080510160704748
:1021B00016484FF080510160704772B6EFF3098006
:1021C00028B1203880E8F00F0C490968086000B594
:1021D0000F4880475DF804EB0E480F490A780270FB
:1021E000064807490A680260106890E8F00F20303E
:1021F00080F309884EF0F40E62B67047D8010020D3
:10220000DC01002022ED00E0E001002004ED00E010
:10221000813901085A0100205B01002010B500F04F
:10222000CFF900F007F800F031F8BDE8104000F0F9
:10223000F1B8000010B501218AB0080212F0D8FEF2
:1022400000244FF44030CDE90640089406A80994D4
:1022500000F08CF901208DF814008DF804408DF801
:1022600005400094049402940394074C6946204668
:1022700000F046FA012000F0A9FA0121204600F002
:102280006BF90AB010BD000000200140F0B501213B
:1022900099B0480212F0ACFE0121880512F084FECC
:1022A00040480190404802A90024082581E83100F7
:1022B000E801CDE9054040000790800008904011FA
:1022C00009900AA94002012681E851000002374F17
:1022D00000900D9469460E94384601F0FDFD00F023
:1022E00067F801221021384601F0D8FD0121384657
:1022F00001F0C4FC15941694179415A8189400F0D6
:1023000035F9680611904FF05060CDE912048DF850
:1023100040608DF841400F94224C8DF850504C3C59
:102320000FA9204600F0ECF90623012200212046E7
:1023300000F00CFA062302220321204600F006FAE0
:10234000062303220421204600F000FA062304227B
:102350000521204600F0FAF90623052219462046F9
:1023600000F0F4F906231A460821204600F0EEF9A1
:10237000062307220921204600F0E8F90623082257
:102380000C21204600F0E2F90121204600F00EF970
:102390000121204600F000F90121204600F0DCF880
:1023A00019B0F0BD4C2101407CBA012040640240CC
:1023B00008B54FF4C06010F097FA3A208DF800008D
:1023C00001208DF8010004218DF802108DF8030022
:1023D000684610F057FA08BD0EB50C4F0C4C00259E
:1023E00002AE0121384601F049FC0121204616F0D9
:1023F00099FF0121204616F0D1FF0023CDE90056B8
:1024000008221946184611F03BFBEAE740640240F7
:1024100000040140F0B501218E0299B0304612F05F
:10242000E7FD0121880512F0BFFD2F4801902F48DC
:1024300002A90024022581E83100A802CDE9066046
:1024400080000890401109900AA905940002012615
:1024500081E851008002264F00900D9469460E9449
:10246000384601F039FD00F045F8012210213846C8
:1024700001F014FD0121384601F000FC15944FF4E1
:1024800070601694CDE9174015A800F06FF8E806C3
:102490001190B805CDE912048DF840608DF84140E7
:1024A0000F94114C8DF850504C3C0FA9204600F071
:1024B00027F9062301220821204600F047F90623C8
:1024C00002220721204600F041F90121204600F0B8
:1024D0006DF80121204600F05FF80121204600F050
:1024E0003BF819B0F0BD00004C220140C4000020B0
:1024F0002864024008B54FF4C06010F0F5F93920A7
:102500008DF8000001208DF8010005218DF80210E2
:102510008DF80300684610F0B5F908BD0EB50C4FF4
:102520000C4C002502AE0121384601F0A7FB012129
:10253000204616F0F7FE0121204616F02FFF00235B
:10254000CDE9005605221946184611F099FAEAE736
:1025500028640240000C00400029816802D041F04C
:10256000010101E021F0010181607047084B10B5C5
:10257000D3F8042307490A40D0E900142143D0E9E5
:102580000240044321431143C3F8041310BD00006B
:1025900000200140E030FCFF0029816802D041F4B6
:1025A000807101E021F480718160704700298168A9
:1025B00002D041F4007101E021F4007181607047A4
:1025C0007CB50121272012F0EFFC03208DF80400D8
:1025D0000020204D8DF8070001246946284600940C
:1025E00004F02AF8082000906946284604F024F8F0
:1025F000102000906946284604F01EF82020009024
:102600006946284604F018F8A002134E0090694667
:10261000304604F011F8600200906946304604F03C
:102620000BF8402000906946284604F005F8009415
:102630000A4C6946204603F0FFFF022000906946DD
:10264000204603F0F9FF042000906946044803F097
:10265000F3FF7CBD00000240001402400004024071
:1026600000080240C06C80B2704702460020126829
:102670000A4200D00120704710B5184C07230122F0
:102680001221204600F062F8204600F099F802215D
:102690002046FFF7EAFF0028F9D02046FFF7E2FFC7
:1026A000FFF784FB9FED0E1B53EC112BFFF78CFA09
:1026B0009FED0D1B53EC112BFFF780FA9FED0C1BC8
:1026C00053EC112BFFF7F2FA9FED0B1B53EC112B80
:1026D000FFF7D3F941EC100B10BD000000200140C2
:1026E0006666666666664A3F00000080EB51E83F1A
:1026F00000000040E17A643F000000000000394023
:1027000030B542680F4B0C791A400B6842EA04223C
:102710001343436082680C4B4D791A40D1E903435F
:1027200023438C6844EA4504234313438360C26A0D
:10273000097D22F47002491EC9B242EA0151C16208
:1027400030BD0000FFFEFFFCFDF7FFC070B50724A1
:1027500009290AD9C568A1F10A0606EB4606B44064
:10276000A543B3401D43C56007E0056901EB410681
:10277000B440A543B3401D4305611F23072A09D276
:10278000446B521E02EB820293409C4391400C43E7
:10279000446370BD0D2A09D2046BD21F02EB820282
:1027A00093409C4391400C43046370BDC46A0D3A4E
:1027B00002EB820293409C4391400C43C46270BD83
:1027C000816841F08041816070470000064900281F
:1027D000D1F8040302D040F4000001E020F400002E
:1027E000C1F8040370470000002001401FB568468F
:1027F00012F016FC019804B010BD000038B5446812
:1028000005460146204617F058FB002808BF38BD92
:10281000464A286811280DD006DC0B282AD00E283D
:1028200038D00F2817D07CE0282873D0B0F5107F5F
:102830000AD076E09268002A08BF38BD294601B068
:102840002046BDE830401047526801B02946204676
:10285000BDE8304010472546204605F06DFA00904F
:10286000406E0468684605F047FB002C1CBF2846F4
:10287000A04738BD204605F05FFA0090683005F0AB
:1028800063F9009803216C3005F086F9684605F07D
:1028900033FB46E0E968486809680D2902D0202921
:1028A00018D037E0002835DD4FF48071204617F04E
:1028B000CFFB204605F040FA009090F8285068467B
:1028C00005F01AFB15F0020F1ED00121204619F069
:1028D00084FB19E0002817DD25464FF4807120465F
:1028E00017F0B6FB284605F027FA009090F828402C
:1028F000684605F001FB14F0020F08BF38BD012146
:10290000284619F06AFB38BD2046BDE83840022150
:1029100021F086BFE86820B920464FF4807117F097
:10292000B1FA2846BDE8384018F014B95803002021
:1029300070B586B04FF0000CDDE90A450C9ECDE97C
:1029400002C5CDE90046CDF810C000F045F806B04C
:1029500070BD70B5044688B08069B4F908C0658A56
:1029600000260091CDE90165CDE903C0B4F90C0062
:10297000B4F91050C118B4F90A00B4F90EC01044EB
:102980002B46624600F028F86468050020D007F066
:1029900099FB284605F0D0F90190866E01A80096B3
:1029A00005F0AAFA214668460BF038FD70B1009890
:1029B000B04208D0284605F0BFF901900099816621
:1029C00001A805F099FA284619F0FEF909F0A6FFCA
:1029D00008B0284670BD00002DE9F04F85B098463C
:1029E000DDE91164DDE90E5791468A46834607F01A
:1029F00069FB04F14C001749CDE90210CDE90057FD
:102A000043464A465146584617F0E8FF05001BD09A
:102A100005F092F910223146049017F031FC0E4C6B
:102A20000499B4E8CD133431A1E8CD1394E80D1026
:102A3000A1E80D1054F82C0D086004A805F05CFA0C
:102A4000206841682846884709F068FF05B0284695
:102A5000BDE8F08FFD27000864030020F0B50446B0
:102A600080688C4989B051F820506068002800F0D7
:102A70000A81052806D006287DD0122800F0B480EF
:102A800000F004B9E869002808BF002651D0D5E954
:102A90000012AB688DE80F0004F110010FC90AF0B5
:102AA000C5FF002655F8260009F05DFBA169E8691D
:102AB0000A1A216901446069304406F029FFA169BE
:102AC000E8690A1A21690144E069801B06F020FFC9
:102AD000E169E8690A1A616901442069304406F035
:102AE000E1FFE169E8690A1A61690144A069801B94
:102AF00006F0D8FF761C022ED4DBA86809F033FB61
:102B0000E069E969D4F814C0431A206942186144A5
:102B1000801C521E07F050F8E169E869A2690B1A9F
:102B200061690144101A401C921E07F045F8EE69D5
:102B300011E055F8260009F016FBE069831BA06937
:102B4000821B606981192069304406F063FF761C9E
:102B5000022EEEDB0226D5E90301CDE90001E16991
:102B6000606901444B10A1698A1B811C20693044B3
:102B700006F00EFC00E011E0D5E90501CDE9000109
:102B8000E0696169831E01440122A06902EB6101D1
:102B9000821B2069304406F0FBFB77E0206805F0DB
:102BA000CBF8049020681AF00FFC50B1A068002800
:102BB00018BF00200AD10498006F002818BF012018
:102BC00004E00498406F002818BF0220049901EB2C
:102BD0008000C56E04A805F08FF900231A46284628
:102BE000216805F03FFF51E0206805F0A5F804904A
:102BF000866E002E08BF04A842D0A168B0F95C70B0
:102C0000002908BF012103D003290CBF02210021A4
:102C100000EB8101406D0C6C09F0CEFA204609F002
:102C2000A2FA06A807F0F6F8BDF81810A88B014420
:102C3000ADF81810BDF81C10081AADF81C00BDF84E
:102C40001A00801CADF81A00BDF81E00801EADF8F9
:102C50001E000498B0F96020B0F95E1006A808F0D4
:102C60005FFD04A805F048F9022009F045FB304655
:102C700005F062F83A4606A9059006F03DF805A869
:102C800005F03AF902E0206819F072FD09B0002061
:102C9000F0BD00005019050870B594460C46054675
:102CA00019466046049A05F09FFE024621462846D2
:102CB000BDE8704000F00FB870B505460C461046F0
:102CC00000210A4605F0B0FE024621462846BDE82E
:102CD0007040AFF30080002808BF7047F8B5154674
:102CE0000C46064607F0EEF9304605F025F8009050
:102CF000032C0BD200EB84006C3004F025FF00980D
:102D000000EB8400C566304619F05EF8684605F0B1
:102D1000F3F809F003FEF8BDFEE72DE9F04744683B
:102D20000546014682B0204617F0C7F8002804BFC8
:102D300002B0BDE8F08728680B287DD00E2805D0AA
:102D40000F283ED0B0F5107F4CD0ADE0204604F007
:102D5000F3FF019090F8746090F8757001A805F089
:102D6000CBF820461AF030FB002854D0E8684168C0
:102D7000002950DD006820284DD1781CB0FBF6F109
:102D800006FB1106002C46D007F09CF9204604F003
:102D9000D3FF009090F87410B1420CD980F87560A0
:102DA000684605F0A9F8204619F00EF805212046DE
:102DB00019F013F902E0684605F09EF809F0AEFD3F
:102DC00072E02546204604F0B7FF0090006F0468CB
:102DD000684605F091F8002C1CBF2846A04702B0B9
:102DE000BDE8F0874FF00009204604F0A5FF0190F0
:102DF00090F8748090F87570B0F930A001A805F0D3
:102E00007BF8EE68BEB3204618F0C6FE20B14946F6
:102E1000204619F0E2F847E0307A68B301212046F5
:102E200019F002FB781CB0FBF8F108FB1106ECB1BD
:102E300007F048F9204600E02CE004F07DFF009008
:102E400090F87410B1420CD980F87560684605F0AE
:102E500053F8204618F0B8FF0521204619F0BDF8B8
:102E600002E0684605F048F809F058FD01212046C7
:102E700019F0B3F818E008E0FFE70221204619F046
:102E8000ACF8504609F050FA0EE00321204619F044
:102E9000A4F809E0204604F04FFF0090783004F0D9
:102EA00053FE684605F028F802B02846BDE8F04712
:102EB00017F050BE70B586B0B0F90840458AD0F81A
:102EC00018C00026CDE90254CDE90016CDF810C097
:102ED000B0F90C10B0F91040B0F90EC0B0F90A000A
:102EE000194410442346624600F002F806B070BD53
:102EF0002DE9FF4F85B01D46DDE912A7DDE91589F3
:102F000016468B4607F0DEF8264C0EB135B10AE0C6
:102F10002068806800688047064625B92068806878
:102F200000688047054620486FF07041C0688842BD
:102F300008BF47F0010709F154011C48CDE900A77B
:102F4000CDE902012B4632465946059817F046FD59
:102F5000050021D004F0F0FE10224146049017F045
:102F60008FF9241D0499B4E8CD133431A1E8CD13B1
:102F700094E8CD11A1E8CD1154F8240D41F8700961
:102F8000022081F874000F20C86704A804F0B4FF81
:102F9000206841682846884709F0C0FC09B02846E7
:102FA000BDE8F08F94030020980300201B2D00083B
:102FB0002DE9F04F0446006889B028B11AF004FAF0
:102FC000002808BF012500D00025FE4850F82560E4
:102FD00060680A2800F0738108DC002800F0DD81B9
:102FE000062841D007280CD000F0E8B9122800F0DC
:102FF0003081192802BFB06909B0BDE8F08F00F038
:10300000DDB9256807F05EF8284604F095FE0090CB
:10301000C76F684604F070FF09F080FC5FF00005A0
:1030200056F8250009F09FF82069C119491B4B1E6D
:1030300061691A462944284406F0ECFC6D1C032DF6
:10304000EED3D6E90301CDE90001D4F810C00CEBB2
:103050000700401B431E60691A4641190CEB05002E
:1030600006F096F900F0AAB9A068401E0690246800
:1030700007F028F8204604F05FFE0090D0F87C802E
:10308000684604F039FF09F049FCDFF83C9359F831
:103090002570002F1CBF069800EB80000DD000BFEC
:1030A000B7F84810414505D107EB8001896809B19F
:1030B0001FB1C4E0FF6C002FF2D1502004F0AAFD34
:1030C000070000F07B81C14C502200212368984703
:1030D00070697864A7F8488059F82500F864BC48FE
:1030E000A8F1060880FB081049F825704110A1EBF3
:1030F000E071032008900120049007F14000CDE921
:103100000280069D05EB850007EB8000019005EB32
:10311000450007EB80002830009008EBD870421083
:10312000401000EBD073A0EB63004618501A0590D6
:1031300008F10700C11700EB51704FEAE00A0AFBE3
:1031400008FB584604F066FD5FEA000977D0236863
:103150005A4600219847DDE90420012826DD089B16
:1031600001213046334483421BDD4FEAE27C02EB0F
:103170005C7E02F0070C802424FA0CFC404509DA3E
:103180000AFB00F404EBEE0419F804B04BEA0C0B54
:1031900009F804B06940401C834202DD0029F9D0DF
:1031A000ECE70598521C761C9042D8DC04990298F2
:1031B000401A0490904225DD08990120344631449C
:1031C000A1421ADDD31702EB537E02F0070C8023D5
:1031D00023FA0CF3444509DA0AFB04FC0CEBEE0C71
:1031E00019F80CB04BEA030B09F80CB06840641CEA
:1031F000A14202DD0028F9D0ECE70498521C761EAB
:103200009042D9DC009802210160009901200871E8
:10321000009A039991600199C88001980021A0F853
:1032200004A00198C0F8089001980161DDE900014F
:10323000C860DDE9010101800198A0F802800698CC
:10324000032200EB800007EB8000114605F0AAFE88
:10325000B4E0206804F070FD0290B0F9547090F86A
:103260005650D0F84490D0F8348002A804F044FEC0
:10327000266806F027FF304604F05EFD0390B0F8A4
:103280007C6003A804F038FE09F048FB684617F09C
:103290005DFFBDF8000071190844ADF80000246A14
:1032A000404608F089FF022009F026F8484608F059
:1032B0005AFF3A466946204605F01EFD7EE020682A
:1032C00004F03AFD0290B0F9548090F85660D0F8BE
:1032D0003490876C02A804F00FFE256806F0F2FE19
:1032E000284604F029FD0390B0F87C5003A804F0B0
:1032F00003FE09F013FB684617F028FFBDF8000035
:10330000A9190844ADF80000206A06F0FFFD044644
:10331000484606F027FE28F00301042904BFBDF843
:103320000610091A08D00C2908D1BDF90610091A8F
:10333000491C01EBD1714910ADF8021028F00C01C5
:1033400001290CD0022913D1BDF90410BDF90020C8
:10335000891A091B01EBD17102EB610106E0BDF88E
:103360000420BDF80010521A121B1144ADF80010D1
:10337000BDF80010621E1144ADF80410BDF8021033
:10338000401E0844ADF80600384608F0ECFE4FF049
:10339000FF31684605F0ACFE10E0206819F0E8F94E
:1033A000206804F0C9FC0790B0F90610B0F90220BB
:1033B000891A491CC16707A804F09EFD09B00020C6
:1033C000BDE8F08FC81905085C0600202005002024
:1033D0006766666638B505004FF000040CD006F04D
:1033E00071FE284604F0A8FC009090F875406846ED
:1033F00004F082FD09F092FA204638BD002808BF8B
:10340000704738B50C46054606F05CFE284604F0C9
:1034100093FC0090416BA14203D04463284618F00E
:10342000D3FC684604F068FD09F078FA38BD00283E
:1034300008BF704738B50C46054606F043FE2846DF
:1034400004F07AFC009090F87410A1420CD980F836
:103450007540684604F050FD284618F0B5FC05217B
:10346000284618F0BAFD02E0684604F045FD09F070
:1034700055FA38BD002814BF0029704770B582B0D6
:103480000D46044606F01EFE204604F055FC019051
:10349000866F01A8009604F02FFD294668460AF0C1
:1034A000BDFF70B10098B04208D0204604F044FC43
:1034B00001900099816701A804F01EFD204618F0D4
:1034C00083FC09F02BFA02B070BD000000B589B092
:1034D00000200090029003900490059006900790C1
:1034E0000890192001900448006880684168684687
:1034F000884709B000BD000094030020044910B5BE
:103500000020086000F01CF8BDE8104000F002B890
:103510001001002010B5FCF77DFE04461021044880
:103520000EF0F7FF2046BDE81040FCF777BE000024
:10353000A0BF012001490860704700001001002071
:1035400010B5FFF753F908490A6842F080720A6023
:10355000064900224A600A6842F001020A60BDE89A
:103560001040FFF7E7BF0000FCED00E0001000E0B6
:103570000148406870470000001000E0FEB51546A5
:103580000E4604460BF094F80D490D4B51F82420DB
:10359000103300FB062100FB0522002053F82430E5
:1035A000CDE90030029006480C3050F82430204617
:1035B00000F0E2F90248083040F82450FEBD000057
:1035C000E40000202DE9FE4F1E46DDE90C959046F3
:1035D0000F460446DDF838A00BF06AF8114951F89F
:1035E0002420083151F8241000FB01220D480D4918
:1035F0000C30143150F8240051F8243008FB0077C7
:1036000009FB006607FB032106FB03220023401B86
:10361000CDF800A0CDE901032B46204600F0ACF91F
:10362000BDE8FE8FE40000202DE9F0471D46DDE9EE
:10363000086917468846044606F008FC012835D07C
:10364000A5EB0805F61B20466D1C761C0BF030F828
:103650001F4A1F4908321E4B51F8241052F82420EB
:10366000143300FB02121A4853F824300C3050F87F
:10367000241007FB018000FB032720464C1BC84693
:103680000BF026F81449134A0A60C1F83880CF635A
:103690000C64486365F31F464E64086840F00100FF
:1036A00008600868C007FCD1BDE8F0870022192136
:1036B00020460CF047FD33462A46394640460BF07B
:1036C000CFFD2046BDE8F047044A19210CF03ABD71
:1036D000E40000200002030000B002402936000888
:1036E00070B5374905460024086810F0450FFBD037
:1036F000410702D50324042003E0C00704D00124BD
:10370000204613F021FA59E013F05AFAA8422BD1BF
:1037100040F2FF5013F018FA002013F073FA294911
:1037200008424BD0002801DA1C2070BD410001D5B1
:10373000092070BD810001D50A2070BDC10001D5EE
:103740000B2070BD010101D50C2070BD410101D5D8
:103750000D2070BDC10101D50E2070BD010201D543
:103760000F2070BD410201D5102070BD810201D52E
:10377000112070BDC10201D5122070BD010301D519
:10378000132070BD410301D5142070BD810301D504
:10379000152070BDC10301D5162070BD010401D5EF
:1037A000172070BD410401D5182070BD810401D5DA
:1037B000192070BD000701D51A2070BD204670BDCC
:1037C000342C014008E0FFFD10B50B4800240168CF
:1037D00011F0450FFBD0480702D50324042003E075
:1037E000C80705D00124204613F0AEF9204610BDCD
:1037F00040F2FF50F8E70000342C014070B50C4651
:10380000194906460025086810F0450FFBD041070E
:1038100002D50324042003E0C00705D0012420467C
:1038200013F092F9204670BD13F0CAF9B04212D1DC
:1038300040F2FF5013F088F9002013F0E3F910F480
:10384000604F03D0810404D5132070BD000C20808C
:1038500007E0410401D5102070BD000401D50F2000
:1038600070BD284670BD0000342C014038B50324DB
:10387000009400F00DFA38BD38B50424009400F02F
:1038800007FA38BD38B50224009400F001FA38BDBB
:1038900038B50024009400F0FBF938BD1CB50121B7
:1038A000084611F081FB4FF48070009001208DF8E4
:1038B000040000218DF806108DF8070002208DF815
:1038C00005006946014802F0B7FE1CBD0000024039
:1038D0001CB54FF48070009000208DF804008DF826
:1038E000070002208DF805006946024802F0A4FE98
:1038F0001CBD0000000002401CB54FF48070009019
:1039000001208DF8040000218DF806108DF80700C5
:1039100002208DF805006946014802F08DFE1CBDAD
:103920000000024086B0124C124F002504AE02A8DF
:1039300011F040FE012812D19DF80800A0729DF8F8
:103940000A10E1721E2901D2322804D9802138469A
:1039500002F0E1FE03E08021384602F0DEFE0023A3
:10396000CDE900561E221946184610F089F8DEE708
:1039700000000020000C02402DE9F0470E4608A987
:103980001C4691E8800315460AF0A2FE0B494FF44D
:1039900000720A60CE60CD63C1F81080C1F840901B
:1039A000C861384664F31F404864086840F001006D
:1039B00008600868C007FCD1BDE8F08700B002408D
:1039C0002DE9F05FFCF726FC04460FF05FF8204677
:1039D000FCF724FC4A4D4B4C2946204600F034FAB3
:1039E00000287DD02946A346204600F031F94648FC
:1039F000DFF81881464F03784FF4805A41F20105F1
:103A00004FF0010940F2DC52002153BBB8F80030FE
:103A1000C38043885B1C9BB24380C488944205D218
:103A20000689964202D3868806B98380944207D2DB
:103A30000689964204D3868816B19E1B012E01DCAE
:103A400053450DD9334EAB4201D1318006E0B0F879
:103A500004C0A3EB0C0397FBF3F3338080F80090D2
:103A60000481437843BBB8F80230C38143895B1CAF
:103A70009BB24381C489944205D2068A964202D3FE
:103A8000868906B98381944207D2068A964204D376
:103A9000828912B19A1A012A01DC53450BD91E4AB8
:103AA000AB4201D1118004E085895B1B97FBF3F3E6
:103AB000138080F8019004820278012A1BD1427899
:103AC000012A18D141808180C18001814181818199
:103AD000C181018201704170104C0021204600E03C
:103AE00009E015F01FFC0021584600F0C7F800213E
:103AF000204615F053FCBDE8F05F0EF0D7BF000084
:103B0000008800102864024034000020C400002017
:103B100080A903001C0000201E000020000C0040B3
:103B2000F8B5FCF777FB04460EF0B0FF2046FCF733
:103B300075FB264C264D2146284600F085F9E8B352
:103B40002146284600F084F822480288234C224B64
:103B5000A18A23F811204288214B23F81120828862
:103B6000204B23F81120C2881F4B23F81120028913
:103B70001E4B23F8112042891D4B23F81120828906
:103B80001C4B23F81120C0891B4A22F81100491C44
:103B900088B2A082B0F5806F15D1184E0021304652
:103BA00015F0C0FB0021284600F068F800213046DF
:103BB00015F0F4FB0020A0826A4600E003E0014615
:103BC0000F480FF093FD0EF071FFF8BD008020103C
:103BD000406402407CBA0120140800203400002018
:103BE0001410002014180020142000201428002095
:103BF000143000201438002014400020000401403C
:103C000044E7002010B5FCF705FB04460EF03EFF2C
:103C10002046FCF703FB13F0ABFFBDE810400EF0AD
:103C200045BF0000074A904201D2074801E005481D
:103C30001038064A8B0001EA020101D5C1607047C5
:103C40008160704710640240006002407D0F7D0F6C
:103C5000074A904201D2074801E005481038064A59
:103C60008B0001EA020101D5C16070478160704795
:103C700010640240006002407D0F7D0F0029016842
:103C800002D041F0010101E021F001010160704723
:103C9000F8B51F46069D144600920E462B4600229C
:103CA00000F01AF8042F16D1082D0DD2DFE805F028
:103CB00004060A0A0A08080A202206E0182204E07C
:103CC000082202E0102200E0002221463046BDE832
:103CD000F84009F0E5BFF8BD70B50C4C4FF48136E3
:103CE000049D2660E060E163002020612064E261C1
:103CF0006363012000EB05406064206840F0010030
:103D000020602068C007FCD170BD000000B00240F8
:103D10002DE9F043016821F00101016000210160FB
:103D200041608160C1600161212141613C493C4A9F
:103D30003D251039904202D18D60BDE8F083384AAC
:103D40004FF474661832904201D18E60F5E7344A20
:103D50004FF474173032904201D18F60EDE7304A52
:103D60004FF0746C4832904202D1C1F808C0E4E7C9
:103D70002B4B2C4A6033984201D1CA60DDE7284CB6
:103D8000294B7834A04201D1CB60D6E7DFF8908090
:103D9000264C08F19008404501D1CC60CDE7DFF812
:103DA00080804FF03D5908F1A808404502D1C1F884
:103DB0000C90C2E71E49DFF878800839404501D1F0
:103DC0000D60BAE71A4D1835A84201D10E60B4E76C
:103DD000174D3035A84201D10F60AEE7144D48357C
:103DE000A84202D1C1F800C0A7E7114D10496035C3
:103DF000091FA84201D10A609FE70D4A783290421C
:103E000001D10B6099E70A4A9032904201D10C60CF
:103E100093E7074AA83290428FD1C1F800908CE70F
:103E2000106002403D000020400F002000003D20B7
:103E3000106402400029016802D041F0200101E035
:103E400021F020010160704730B5104A00249042F3
:103E500001D20F4B01E00D4B103B0E4A114205D031
:103E60001E2202EAD12502682A4002E0406900F0E1
:103E70008002880001D5586800E01868064B184099
:103E8000084201D002B10124204630BD1064024036
:103E9000006002403C0F3C0F7D0F7D0F0B0607D5E5
:103EA000436912B143F0800301E023F080034361D2
:103EB000802908D0002A026801F01E0101D00A43BF
:103EC00000E08A430260704738B50023049C0092EA
:103ED0002246FFF701FF38BD30B50368124ACC68AF
:103EE00013400A682243D1E905452C432243CC699B
:103EF00022430C6A22434C6A22438C6A22434C6B55
:103F000022438C6B22431A430260426922F007036A
:103F1000D1E90B2422431A4342610A6942604A688C
:103F200082608968C16030BD3F801CF007B581B0F8
:103F30000298000E20D012481049016001A9C1600A
:103F400002A94161C0F83CD04FF4803141EA0261DE
:103F5000C161C2F1FF0109064162002141634FF0D6
:103F600001114164016841F0010101600168C90764
:103F7000FCD1009804B000BD0198FBE700020200EC
:103F800000B0024030B581B0ADF5805D00230D4832
:103F90001A4669464FF4806441F8232030F91350E3
:103FA00041F823505B1C9BB2A342F5D3224606483E
:103FB000FCF746F9204610F0CFFF01B00DF5805D0B
:103FC00030BD000014C80020F49701202DE9F04115
:103FD000ADF5825DDFED290A294A002001AE4FF4DC
:103FE000806300BF06EB8001C1ED000A32F910408A
:103FF000401C00EE104A9842B8EEC00A81ED000A5B
:10400000F0D32148214D1F4F017841F20408286860
:10401000E844052910D2DFE801F0030711151A0062
:104020001B4B1C4A009003E01A4A194BA43A00901B
:1040300029214046FDF78DFC002417E0144B164A59
:104040000090F5E7144A124BA43A0090F0E7104BA9
:10405000124A0090ECE72B6804FB03F007EB8002A8
:1040600006EB80014046FDF7DBF9641C686884427A
:10407000F1D30DF5825DBDE8F08100000000000085
:1040800014C8002014D00020300000204C00002074
:10409000F4B70120A0BB020858BA020810B9020800
:1040A0000EB5FE4C002202AB114610460FF08EFA00
:1040B0000026FB493746304632464FF400753346FA
:1040C00031F812C002F101021CEB000092B29B46D3
:1040D000AA42F5D3C21700EBD250C0F34F22642A94
:1040E00042D9DFF8C0C300204FF4806831F81030A7
:1040F000C2469B1A2CF81030401C80B2E146504555
:10410000F4D3FFF763FFE84A00214B4602F59048DD
:104110004FEA0A0C08EB810090ED000ABDEEC00AE0
:1041200010EE100A00B222F8110023F81100B0427C
:1041300000DB0646B84200DC0746491C89B2E1466E
:104140004945E7D3F01BA081FFF71CFFD749D84AA8
:1041500000204E4632F820305B4221F81030401CDF
:1041600080B2B042F6D30DE0CF4AD049A3810020FF
:104170004FF4806622F8103021F81030401C80B2D5
:10418000B042F7D30026CB493746304632465B462D
:1041900031F812C002F101021CEB000092B2AA42F7
:1041A000F6D3C21700EBD250C0F34F22642A43D992
:1041B000DFF8F0C200204FF4806800BF31F8103003
:1041C000C2469B1A2CF81030401C80B2E146504584
:1041D000F4D3FFF7FBFEB84A00214B4602F58048B6
:1041E0004FEA0A0C08EB810090ED000ABDEEC00A10
:1041F00010EE100A00B222F8110023F81100B042AC
:1042000000DB0646B84200DC0746491C89B2E1469D
:104210004945E7D3F01BE081FFF7B4FEA749A44B63
:1042200000204A4633F82060764221F81060401C96
:1042300080B29042F6D30DE09F49A04AE38100206E
:104240004FF4806621F8103022F81030401C80B204
:10425000B042F7D300269A493746304632465B468D
:1042600031F812C002F101021CEB000092B2AA4226
:10427000F6D3C21700EBD250C0F34F22642A43D9C1
:10428000DFF820C200204FF4806800BF31F8103002
:10429000C2469B1A2CF81030401C80B2E1465045B3
:1042A000F4D3FFF793FE874A00214B4602F560588E
:1042B0004FEA0A0C08EB810090ED000ABDEEC00A3F
:1042C00010EE100A00B222F8110023F81100B042DB
:1042D00000DB0646B84200DC0746491C89B2E146CD
:1042E0004945E7D3F01B2082FFF74CFE7649704B1F
:1042F00000204E4633F82020524221F81020401C66
:1043000080B2B042F6D30DE06E496F4A238200209E
:104310004FF4806621F8103022F81030401C80B233
:10432000B042F7D3002669493746304632465B46ED
:1043300031F812C002F101021CEB000092B2AA4255
:10434000F6D3C21700EBD250C0F34F22642A43D9F0
:10435000DFF850C100204FF4806800BF31F8103002
:10436000C2469B1A2CF81030401C80B2E1465045E2
:10437000F4D3FFF72BFE564A00214B4602F5405876
:104380004FEA0A0C08EB810090ED000ABDEEC00A6E
:1043900010EE100A00B222F8110023F81100B0420A
:1043A00000DB0646B84200DC0746491C89B2E146FC
:1043B0004945E7D3F01B6082FFF7E4FD45493C4ED9
:1043C00000204A4636F820305B4221F81030401C6D
:1043D00080B29042F6D30DE03D493E4A6382002010
:1043E0004FF4806621F8103022F81030401C80B263
:1043F000B042F7D3002638493746304632465B464E
:1044000031F812C002F101021CEB000092B2AA4284
:10441000F6D3C21700EBD250C0F34F22642A68D9FA
:10442000DFF880C000204FF4806800BF31F8103002
:10443000C2469B1A2CF81030401C80B2E146504511
:10444000F4D3FFF7C3FD254A00214B4602F520585F
:104450004FEA0A0C08EB810090ED000ABDEEC00A9D
:1044600010EE100A00B222F8110023F81100B04239
:1044700000DB0646B84200DC0746491C89B2E1462B
:104480004945E7D3F01BA082FFF77CFD1449084B98
:1044900000204A4633F82060764223E000000020E6
:1044A0001408002014C8002014880020144800209C
:1044B000F4A70120141000201490002014500020B4
:1044C00014180020149800201458002014200020F4
:1044D00014A00020146000201428002014A800203C
:1044E0001468002021F81060401C80B29042D1D3A3
:1044F0000EE0B249A3820020A1F580424FF480660D
:1045000021F8103022F81030401C80B2B042F7D3AE
:104510000026AB493746304632465B4631F812C07A
:1045200002F101021CEB000092B2AA42F6D3C217BC
:1045300000EBD250C0F34F22642A43D9DFF884C283
:1045400000204FF4806800BF31F81030C2469B1A3B
:104550002CF81030401C80B2E1465045F4D3FFF7F0
:1045600035FD994A00214B4602F500584FEA0A0CE6
:1045700008EB810090ED000ABDEEC00A10EE100AB3
:1045800000B222F8110023F81100B04200DB064609
:10459000B84200DC0746491C89B2E1464945E7D3E9
:1045A000F01BE082FFF7EEFC884B894A0020494669
:1045B00032F82060764223F81060401C80B28842B6
:1045C000F6D30DE08049814AE38200204FF48066F3
:1045D00021F8103022F81030401C80B2B042F7D3DE
:1045E00000267C493746304632465B4631F812C0D9
:1045F00002F101021CEB000092B2AA42F6D3C217EC
:1046000000EBD250C0F34F22642A43D9DFF8B4C183
:1046100000204FF4806800BF31F81030C2469B1A6A
:104620002CF81030401C80B2E1465045F4D3FFF71F
:10463000CDFC694A00214B4602F5C0584FEA0A0CEE
:1046400008EB810090ED000ABDEEC00A10EE100AE2
:1046500000B222F8110023F81100B04200DB064638
:10466000B84200DC0746491C89B2E1464945E7D318
:10467000F01B2083FFF786FC584E554900204B461F
:1046800031F82020524226F81020401C80B2984277
:10469000F6D30DE05049514A238300204FF4806641
:1046A00021F8103022F81030401C80B2B042F7D30D
:1046B00000264B4A37463046314600BF32F81130AB
:1046C00001F10101181889B2A942F7D3C11700EB13
:1046D000D150C0F34F2164293ED93A4D00204FF408
:1046E000806300BF32F810C09846ACEB010C25F88F
:1046F00010C0401C80B24045F4D3FFF767FC394B33
:104700000021A3F5805200BF03EB810090ED000A69
:10471000BDEEC00A10EE100A00B222F8110025F812
:104720001100B04200DB0646B84200DC0746491CD7
:1047300089B24145E8D3F01B6083FFF723FC24498D
:10474000294B002031F82020524223F81020401C31
:1047500080B24045F6D30FE0244A234B5946A4F8D3
:104760001AB000204FF4806522F8101023F81010C2
:10477000401C80B2A842F7D30120207002AA002179
:104780001B480EF0B3FF1A4802AA0021B8300EF001
:10479000ADFF174802AA0021B8380EF0A7FF02AA01
:1047A000002114480EF0A2FF02A9CDE900B10023B8
:1047B0000122194618460FF063F973E414A800208B
:1047C0001430002014C8002014B000201470002001
:1047D000F4A701201438002014B800201478002019
:1047E0001440002014D000201480002014C00020A9
:1047F000B4E8002024EA00207047F8B54FF0E02626
:1048000000247769B42100FB01F568460EF064FBD3
:10481000B069B1698142FCD002D2A0EB010002E094
:10482000A7EB0102104404440846AC42F1D36846A9
:104830000EF07CFBF8BD00002DE9F84F16468046CF
:10484000224C1D4630440F4601EB050900902168BB
:10485000496E4A68494690472268A8EB06004946D7
:10486000526E8346526890472068B91908EB0509D3
:10487000406E8A464268484690472268B91B0E46F9
:10488000526E484652689047002D08BFBDE8F88F29
:104890007F1B21680098496E4A6839469047226814
:1048A00039465846526E526890472068A8EB050575
:1048B0005146406E42682846904722683146284655
:1048C000526E526801B0BDE8F04F10475802002008
:1048D00000234FF0204210280AD0B0F5807F09D085
:1048E000B0F5805F09D0D2F85801814309D107E0C3
:1048F000506EFAE7D2F88400F7E7D2F8A400F4E7A4
:10490000012318467047D0E90012114382686FF006
:104910001F03C06803EB421242EA402001434FF0FC
:104920002040C0F850117047F0B50668B100A1F101
:10493000C041D1F84011056ACA0BD0E901131943EF
:10494000D0E90334234319434369446A1943836913
:10495000D2031943C36919432943214311434FF03B
:104960002042E6B3D2F840612B436FF30E06344386
:104970002343C2F8403103689B00A3F1C043C3F84E
:10498000401100BF6FF00F052E012B0301681C01C1
:1049900031B38900A1F1C041D1F84811876A01F013
:1049A000704CD7E9001E05EB0E15491E2943BD6862
:1049B00006EB052529433D8A03EB05431943D2F84D
:1049C000483141EA0C0103F07045FB68BE8A1B03C5
:1049D00004EB0654A3F5805323432B4301E009E085
:1049E0000BE0C2F8483100688000A0F1C040C0F878
:1049F0004811F0BDC2F84011C4E7D2F8481101F0E7
:104A00007047816AD1E9000C05EB0C15401E284364
:104A10008D6806EB052528430A4ECD6806EB053563
:104A200028430D8A03EB054318438B8A097E04EB68
:104A300003531843330303EB016108433843C2F8BF
:104A40004801F0BD00F0FFFF4FF02041D1F85421A4
:104A500042EA4000C1F8540170472DE9F04389B0A3
:104A6000984615460F4606004FF0000423D000F08C
:104A70009AFC0446304600F07DFC814605F022FB9E
:104A800003A9304600F026FD17F0010F17D0BDF93D
:104A90001C008221001B401B401C0096CDE90181B7
:104AA00023461A464946FDF743FF0446002115F008
:104AB000F7FA07F033FF09B02046BDE8F083BDF9EF
:104AC000180017F0020F284414BF40F202210221FF
:104AD000E3E7000010B50523FFF7BFFF0446054AD2
:104AE0000021FEF7E9F80449204617F085FC20462E
:104AF00010BD000001FB0108216E02082DE9F047FE
:104B0000446805468EB04FF00008204603F014F9C3
:104B10000090B0F87CA0D0F86890D0F88070D0F801
:104B20008860C06D002818BFD0F80080684603F088
:104B3000E3F956B171682846884700281CBF0EB0BB
:104B4000BDE8F0873668002EF4D12868172802BF28
:104B5000C5F80C900EB0BDE8F08713DC0F2844D0E8
:104B60000ADC0B2800F053810D2808BF1AF0080F4B
:104B700000F0F68000F054B9112814D0142870D039
:104B800000F04EB926286DD006DC1E286BD02028F8
:104B900000F0F08000F044B92A2818D0B0F5107F5A
:104BA0002AD000F03DB92046EE6803F0C5F8019028
:104BB000717A002904BF317A012905D1B0F87C103F
:104BC00041F48071A0F87C1001A800F0FDB82046E7
:104BD00003F0B2F80090E968002912BFC0F8841011
:104BE000D0F88400E860684649E0B8F1000F1CBFC7
:104BF0002046C04700F014B927462046EE6803F06F
:104C00009BF80190B0F87C4001A803F075F9E868C2
:104C1000002804BF0EB0BDE8F087307A20B314F04E
:104C2000080F04BF384617F0A5FC384615F052FEB1
:104C300014F0100F12BF14F4807F0EB0BDE8F0879F
:104C4000002314F0800F1CBF0EB0BDE8F087794838
:104C50003146B0F90020384617F010FC0EB0BDE820
:104C6000F0870FE018E024E0384603F065F8019083
:104C7000B0F87C1021F48071A0F87C1001A803F03A
:104C80003BF9EBE705A9204600F024FCDDE906121C
:104C9000E86801604260E1E7E8680228DED10C9430
:104CA000E8680D9027200A900AA9A86818F066FD08
:104CB000D4E7E868012819D0002CCFD005F002FA1B
:104CC000204603F039F80190B0F87C1011F0080F7D
:104CD00006D021F00801A0F87C10204617F074F8E7
:104CE00001A803F009F907F019FEB7E7384617F0F5
:104CF000F5F858B1384617F03DFC384616F05AFF23
:104D000088B10121384615F0A3F90CE0484617F0A8
:104D1000ADFC0746204603F00FF80090C0F8807005
:104D2000684603F0E9F8B4B105F0CCF9204603F089
:104D300003F80290B0F87C1011F0080F06D141F092
:104D40000801A0F87C10204617F03EF802A803F0F6
:104D5000D3F807F0E3FD002F04BF0020E8607DE7F3
:104D6000E868C06800281FBF007A0028204617F0B6
:104D700001FC55E0EE684EB32146706818F0FCFA6D
:104D800000282746204622D002F0D6FF0490B0F833
:104D90007C1011F0080F06D141F00801A0F87C103A
:104DA000384617F011F804A803F0A6F821467068F9
:104DB00018F0CEFA50B1204602F0BEFF02907168A2
:104DC000C0F880100DF1080003F096F828E002F01A
:104DD000B3FF0490B0F87C1011F0080F06D021F05A
:104DE0000801A0F87C10384616F0EEFF04A803F086
:104DF00083F82146306818F0ABFA88B1204602F0FB
:104E00009BFF02903168C0F8801002A8DCE72046C2
:104E100002F092FF0090703002F096FE6846D3E7F1
:104E20002946204615F049F800281CBF284615F0F1
:104E300091FE13E7D403002070B588B0B0F90840A4
:104E40000DF10C0E0C9ED0F818C045688EE870105D
:104E5000B0F812C00024CDE90014CDF808C0B0F9B4
:104E60000C10B0F91040B0F90EC0B0F90A001944A6
:104E700010442346624600F003F808B070BD0000FD
:104E80002DE9FF4F8BB09946DDE91885DDE91B67F9
:104E900092468B461E9C05F015F904F160004449CA
:104EA00045F48055CDE90210CDE900854B465246C8
:104EB00059460B9815F092FD040073D002F03CFFA8
:104EC00030223146049015F0DBF93A4E049A06F18F
:104ED000080102F1340E91E80B1F8EE80B1FD6E992
:104EE0000A01C2E915011D9850661A98A2F87C00C3
:104EF0004FF00008C2F88080C2F86C80C2F8888049
:104F00007068D06504A802F0F7FF05A9204600F0FC
:104F1000E1FA294841F28271CDF80C800094CDE984
:104F20000110BDF91E00BDF91A10BDF91C20401A70
:104F3000431CBDF91800121A521C15F04FFD804693
:104F40007068416820468847204602F0F5FE0490CC
:104F5000C0F8688004A802F0CFFF42F204000542C6
:104F600004BF204615F0FEFE05F0ACF8204602F026
:104F7000E3FE0090006F0190684602F0BDFF3946E5
:104F800001A809F04BFA58B1204602F0D5FE009076
:104F900001990167684602F0AFFF204616F014FF42
:104FA00007F0BCFC07F0BAFC0FB02046BDE8F08F5C
:104FB000FD4A0008D4030020935800082DE9F04171
:104FC000044698B0006800F0BDF9002814BFDB4D1E
:104FD000DB4D6068152802BFA86A18B0BDE8F081F3
:104FE00012DC0B282AD007DC002800F0928105286B
:104FF00000F02C8100F09DB90E2800F07781122876
:1050000000F03B8100F095B9162802BFE86918B09E
:10501000BDE8F081172802BF286A18B0BDE8F0810A
:10502000182802BF686A18B0BDE8F0811C2802BFCA
:10503000686918B0BDE8F08100F07BB920680E9077
:105040001C200F90206802F077FE0390016D0EA8DF
:105050008847064603A802F04FFF022E11DBD5E970
:105060000001AA680292CDE90001D4E904023346A6
:10507000A16908F0D9FB20698719A069A0EB06088F
:105080002CE0286807F06FF82169E8690844421E9F
:10509000606904F03DFCA269E869101A411C60696E
:1050A00004F036FC6069471C3946206904F08AFC2C
:1050B0003946A06904F086FC686807F054F8206956
:1050C0003946401C04F07EFCA0693946401E04F0BD
:1050D00079FC2069871CA069A0F10208286807F004
:1050E00042F842463946606904F012FC686807F0ED
:1050F0003AF8606942463946401C04F009FC686A87
:1051000002287DDDA86807F02EF860696A6A811CB4
:105110001044431E4246384604F04EFD6069022E9C
:10512000ACBF0644861CE069471E286807F01BF8E0
:105130003A463146206904F0B5FC3A463146A0694A
:1051400004F0B0FCE069871E686807F00CF820697D
:105150003A463146401C04F0A5FCA0693A46314667
:10516000401E04F09FFCE8690228DCBF286A022880
:1051700020DDA86A0228C7BFE1690F1AE069871E0F
:10518000A86806F0F0FFE969022907DD22693B46BD
:10519000901C11444A1E314604F00EFD286A022874
:1051A00008DDA169E8698A1E081A3B463146401CA1
:1051B00004F002FD286806F0D6FFD4E90620216934
:1051C00004F0A6FB686806F0CEFFA069421E2069C5
:1051D000411CE069401E04F09BFBA86A02284BDDDD
:1051E00021698E1CA1698F1EE169081A441CA1F176
:1051F0000208A86806F0B7FF43463A46214600E099
:1052000003E0304604F0D8FC93E0296AB14285DD22
:105210006069022E00F10208ACBF87194746206979
:10522000ACBF3044801C22693B461144A1F101020D
:10523000414604F0C1FCA069022EACBF821B821E55
:10524000E9693B46401A4146401C65E7208A00B2A6
:10525000ADF81800A18A09B2ADF81A10228B12B26B
:10526000ADF81C20A38B1BB2ADF81E30D5E9034C62
:10527000CDE9004C04F08CF85BE0208A298B0844CF
:10528000ADF81800A08AADF81A00208B298B401ABF
:10529000ADF81C00A08BADF81E00206802F04CFD9C
:1052A0000390006FF0B1022007F026F8039991F8FF
:1052B0007C00C0F3C00001EB8000006C06F053FFDF
:1052C0000398406B06F078FF0398006F02F034FDFE
:1052D00003990A90B1F95A2006A903F00DFD0AA816
:1052E00002F00AFE03A802F007FE22E0208AADF8D1
:1052F0001800A08AADF81A00208BADF81C00A08B16
:10530000ADF81E00A86806F02EFF06A804F080FC89
:105310000FE0206802F010FD0390B0F85A1041F041
:105320000C01A0F85A1003A802F0E6FD206817F05F
:105330001FFA18B00020BDE8F081000078060020B8
:10534000A406002038B505004FF0000410D004F08A
:10535000B9FE284602F0F0FC009090F87C0010F0B6
:10536000080F18BF0124684602F0C6FD07F0D6FA00
:10537000204638BD38B505004FF0000411D004F0C8
:10538000A1FE284602F0D8FC0090C06D0021806884
:105390000268284690470446684602F0ADFD07F0D3
:1053A000BDFA204638BD30B587B005004FF0000487
:1053B00014D004F087FE01A9284600F08BF8284697
:1053C00002F0BAFC0090B0F95440684602F094FD37
:1053D000002C08BFBDF9044007F0A0FA07B0204632
:1053E00030BD002808BF704738B50C46054604F0AC
:1053F00069FE284602F0A0FC0090816CA14203D017
:105400008464806E16F0E0FC684602F075FD07F0DB
:1054100085FA38BD002808BF704738B50C460546E8
:1054200004F050FE284602F087FC009004644464B7
:10543000684602F061FD284616F0C6FC07F06EFAD9
:1054400038BD2DE9F04383B00E4607004FF000054C
:105450003CD004F037FE384602F06EFC0190B0F903
:1054600054100D468E422CD090F83220002412F0B9
:10547000200F05D02C0003D1406B04F073FD841C79
:1054800001980121A0F85460C06D866838463268E2
:1054900090478146326803213846904780463268FB
:1054A0000021384690470646384600F0B7F9434693
:1054B0004A4621463846009600F02FF9384616F045
:1054C00083FC01A802F018FD07F028FA03B0284673
:1054D000BDE8F0832DE9F04F00278DB00C468146E2
:1054E000BA4602F029FC0190C06D0121856848464A
:1054F0002A68904780462A680321484690470790CB
:105500002A6802214846904706902A6800214846AA
:1055100090470646019817F081FD0590019817F015
:1055200084FD8346019890F8321001F02001002993
:1055300018BFB0F958A04FF0000506D0B0F954508C
:105540001DB9406B04F00EFD851C0198C06E10B1B2
:1055500016F0D4F8074625806780A4F804800799E0
:105560000598401A06EB0A01401E2944208139445F
:10557000E1800699ABEB0101491E6181A4F80C8022
:1055800020827019E681401E608201A802F0B4FCFE
:10559000B4F90C70B4F910604D46484602F0CCFBEB
:1055A0000690C16DD0F8008006A8D1F8089002F0EE
:1055B000A3FCD9F8002000212846904781462846C0
:1055C00015F073FE050024D002F0B6FB0790B0F989
:1055D00000200FFA88F1B0F90430521A5B1AB0F9C2
:1055E0000210A1EB284149450BD190F8280010F09A
:1055F000800F03D09642A8BF561E02E09F42D8BF3C
:105600005F1C07A802F078FC284615F012FF050081
:10561000DAD1A78126820DB0BDE8F08F10B5014622
:10562000002091F8322012F0200F08BF10BDB1F910
:105630005400002818BF10BD486B04F093FC801C78
:1056400010BD70B58AB00E46044602F075FB099095
:10565000C06D856809A802F04FFC0094002E08BFB9
:1056600018200BD0012E08BF162007D0022E08BF2D
:10567000152003D0032E08BF172000D101906968C0
:10568000684688470AB070BD2DE9F04383B01746DD
:105690008846814602F050FB0090C16D056868465F
:1056A0008C6802F029FC2268002148469047064693
:1056B000484615F0FAFD040004BF03B0BDE8F083CE
:1056C00002F03AFB0190B0F900102AB2B0F90430B0
:1056D000891A9A1AB0F90230A3EB2543B34211D1CB
:1056E00090F8280010F0800F05D038688842A4BFD9
:1056F000481E386006E0D8F800009042DCBF501C1D
:10570000C8F8000001A802F0F7FB204615F091FE52
:105710000400D5D103B0BDE8F0832DE9FF4F85B07B
:105720009A4691460F46DDF848B0059802F004FB12
:105730000390C16D8C68FFF771FF064603A802F065
:10574000DBFB226801210598904702902268032123
:1057500005989047019022680021059890470546DA
:10576000BE4204BF0298484506D10198504502BF89
:105770005D4509B0BDE8F08FA6EB07044FF00007C8
:10578000B846059815F091FD060004BF09B0BDE8C4
:10579000F08F0198A5EB0B05AAEB000A0298A0EB8D
:1057A0000909304602F0C8FA0090806A10F0800FB4
:1057B00003D010F4007F06D025E010F4007F22D043
:1057C00010F0800F1FD124B122461146304616F04A
:1057D0006BFC009890F8280010F0800F06D004FBB6
:1057E00017A12A4630467F1C16F0E8FB0098008D72
:1057F00010F4007F07D004FB08912A46304608F1D8
:10580000010816F0DBFB684602F076FB304615F027
:1058100010FE0600C5D109B0BDE8F08F70B586B0A6
:10582000064602F089FA0590D0E91A4505A802F06B
:1058300063FB54EA050004BF06B070BD69463046FC
:10584000FFF748FEACB1BDF90620BDF904102046B3
:1058500016F060FBBDF90A00BDF90610401A421CA3
:10586000BDF90800BDF90410401A411C204617F08C
:105870000BF8002D04BF06B070BDBDF90600BDF9E0
:105880000210421ABDF90410284616F043FB06B078
:1058900070BD2DE9F0430446406889B0054615F017
:1058A000FDFD814602F048FA0290D0F88080876CB6
:1058B000466E02A802F020FB2068172862D008DCA0
:1058C0000E2850D00F2816D0142818BF152859D0EC
:1058D00052E01E2829D01F283ED0222802BFE760B0
:1058E00009B0BDE8F083312801BF0020E06009B0B5
:1058F000BDE8F08340E06FF07040874204D0384646
:105900000AF0D4FB02F05CFE002E04BF09B0BDE833
:10591000F083D4E902122068CDE90405CDE906122E
:1059200004A8B04709B0BDE8F083E068002804BFD0
:1059300009B0BDE8F083B8F1000F18BFA84505D045
:10594000404616F017FE09B0BDE8F083284616F071
:105950008DFE09B0BDE8F0832146484614F0ADFA4B
:1059600009B0BDE8F083E0684168002904DD006803
:105970000928EBD00A280BD0002E1CBFC4F80490D5
:105980002046CED1204615F0E5F809B0BDE8F083F9
:10599000284616F0B5FE09B0BDE8F0832DE9FC5F9E
:1059A0000025484C00954FF4806801954027C4F8C5
:1059B0001080C4E902750E464FF0080B1021C4E9AF
:1059C00000B1A946204611F05DF91020FDF788FED0
:1059D00000284CD13C48BA464F460089000420605C
:1059E0003720C4E9010AC4E90398204611F04AF9B6
:1059F0003720FDF775FE002839D1411E04F114004F
:105A0000C0E9001B302181600221C0E90317012198
:105A1000416111F0B1F83320C4F808A0C4E9007066
:105A2000C4E90378204611F02DF93320FDF758FE24
:105A300004001CD1254F4FF4001AE94640F22A68B1
:105A4000386810EA080F0AD1504611F0BFF8002854
:105A5000F6D011F011F949F825006D1CF0E7082087
:105A600011F0B4F828B1082011F06EF80420BDE858
:105A7000FC9F022011F0AAF820B1022011F064F876
:105A80000220F4E7202011F0A1F820B1202011F02D
:105A90005BF80620EBE74FF40075284611F096F806
:105AA00020B1284611F050F80720E0E740F2FF50FF
:105AB00011F04AF8009800BA7060019800BA30609E
:105AC0002046D4E750BA012094000020342C014035
:105AD0002DE9F04F80460F4640F2C32050434FF46B
